{
  "transactions": [
    {
      "hash": "0x031a51ac6ca79316b9aeb29536c5d41548677e8be090eb853371cb2cbb55d54b",
      "transactionType": "CALL",
      "contractName": null,
      "contractAddress": "0xde60916277e01d8a20cb19ca029a8bc24ab5654f",
      "function": "mintNft(string)",
      "arguments": [
        "\"ipfs://QmXZn37m39A8utJR5AAjuJ6axp7mK5dsxbkemMmPySSJ4K/?filename=0-pug.json\""
      ],
      "transaction": {
        "from": "0x0c4b161299fa4d45fcb3b70f9b2f472859705481",
        "to": "0xde60916277e01d8a20cb19ca029a8bc24ab5654f",
        "gas": "0x3d53c",
        "value": "0x0",
        "input": "0xda86f4a90000000000000000000000000000000000000000000000000000000000000020000000000000000000000000000000000000000000000000000000000000004a697066733a2f2f516d585a6e33376d3339413875744a523541416a754a36617870376d4b35647378626b656d4d6d507953534a344b2f3f66696c656e616d653d302d7075672e6a736f6e00000000000000000000000000000000000000000000",
        "nonce": "0xc",
        "chainId": "0xaa36a7"
      },
      "additionalContracts": [],
      "isFixedGasLimit": false
    }
  ],
  "receipts": [
    {
      "status": "0x1",
      "cumulativeGasUsed": "0xd5e6e6",
      "logs": [
        {
          "address": "0xde60916277e01d8a20cb19ca029a8bc24ab5654f",
          "topics": [
            "0xddf252ad1be2c89b69c2b068fc378daa952ba7f163c4a11628f55a4df523b3ef",
            "0x0000000000000000000000000000000000000000000000000000000000000000",
            "0x0000000000000000000000000c4b161299fa4d45fcb3b70f9b2f472859705481",
            "0x0000000000000000000000000000000000000000000000000000000000000000"
          ],
          "data": "0x",
          "blockHash": "0x6580539f30bf330e38c79edc64498ac550c13418754c87ebdb87b451f8f25f07",
          "blockNumber": "0x5dabfe",
          "transactionHash": "0x031a51ac6ca79316b9aeb29536c5d41548677e8be090eb853371cb2cbb55d54b",
          "transactionIndex": "0x62",
          "logIndex": "0xbb",
          "removed": false
        }
      ],
      "logsBloom": "0x00040000000000000000000000000000000000000000000000000000000000000000000000010000000000000000000000000000000000000000200000000000000000000000000000000008000000040000000000000000000000000000000000000000020000000000000000000800000000000000000000000010000000000000000000000000000000000000000000000000000000000000000000800000000000000000000000000000000000000000000000000000000000000000000000000002000000000000000000000000000000000000000000000000000020000000000000800000000000000000000000000000000000000000000000000000",
      "type": "0x2",
      "transactionHash": "0x031a51ac6ca79316b9aeb29536c5d41548677e8be090eb853371cb2cbb55d54b",
      "transactionIndex": "0x62",
      "blockHash": "0x6580539f30bf330e38c79edc64498ac550c13418754c87ebdb87b451f8f25f07",
      "blockNumber": "0x5dabfe",
      "gasUsed": "0x2c666",
      "effectiveGasPrice": "0x1f631925",
      "from": "0x0c4b161299fa4d45fcb3b70f9b2f472859705481",
      "to": "0xde60916277e01d8a20cb19ca029a8bc24ab5654f",
      "contractAddress": null
    }
  ],
  "libraries": [],
  "pending": [],
  "returns": {},
  "timestamp": 1718780320,
  "chain": 11155111,
  "commit": "05e5918"
}