{
  "transactions": [
    {
      "hash": "0xc5feff6255a723e0819582640cc512db865fe77326b53e93595fafc49282ce42",
      "transactionType": "CALL",
      "contractName": "BasicNft",
      "contractAddress": "0xde60916277e01d8a20cb19ca029a8bc24ab5654f",
      "function": "mintNft(string)",
      "arguments": [
        "\"ipfs://QmXZn37m39A8utJR5AAjuJ6axp7mK5dsxbkemMmPySSJ4K/?filename=0-pug.json\""
      ],
      "transaction": {
        "from": "0x0c4b161299fa4d45fcb3b70f9b2f472859705481",
        "to": "0xde60916277e01d8a20cb19ca029a8bc24ab5654f",
        "gas": "0x31cb5",
        "value": "0x0",
        "input": "0xda86f4a90000000000000000000000000000000000000000000000000000000000000020000000000000000000000000000000000000000000000000000000000000004a697066733a2f2f516d585a6e33376d3339413875744a523541416a754a36617870376d4b35647378626b656d4d6d507953534a344b2f3f66696c656e616d653d302d7075672e6a736f6e00000000000000000000000000000000000000000000",
        "nonce": "0x10",
        "chainId": "0xaa36a7"
      },
      "additionalContracts": [],
      "isFixedGasLimit": false
    }
  ],
  "receipts": [
    {
      "status": "0x1",
      "cumulativeGasUsed": "0xad4bcc",
      "logs": [
        {
          "address": "0xde60916277e01d8a20cb19ca029a8bc24ab5654f",
          "topics": [
            "0xddf252ad1be2c89b69c2b068fc378daa952ba7f163c4a11628f55a4df523b3ef",
            "0x0000000000000000000000000000000000000000000000000000000000000000",
            "0x0000000000000000000000000c4b161299fa4d45fcb3b70f9b2f472859705481",
            "0x0000000000000000000000000000000000000000000000000000000000000002"
          ],
          "data": "0x",
          "blockHash": "0x09c3e2d61ff0bc4cffa56ebb74d72d2c61239a50a48092de8c2acab3d0d23a35",
          "blockNumber": "0x5e207a",
          "transactionHash": "0xc5feff6255a723e0819582640cc512db865fe77326b53e93595fafc49282ce42",
          "transactionIndex": "0x49",
          "logIndex": "0x8d",
          "removed": false
        }
      ],
      "logsBloom": "0x04040000000000000000000000000000000000000000000000000000000000000000000000010000000000000000000000000000000000000000200000000000000000000000000000000008000000040000000000000000000000000000000000000000020000000000000000000800000000000000000000000010000000000000000000000000000000000000000000000000000000000000000000800000000000000000000000000100000000000000000000000000000000000000000000000002000000000000000000000000000000000000000000000000000020000000000000800000000000000000000000000000008000000000000000000000",
      "type": "0x2",
      "transactionHash": "0xc5feff6255a723e0819582640cc512db865fe77326b53e93595fafc49282ce42",
      "transactionIndex": "0x49",
      "blockHash": "0x09c3e2d61ff0bc4cffa56ebb74d72d2c61239a50a48092de8c2acab3d0d23a35",
      "blockNumber": "0x5e207a",
      "gasUsed": "0x240ce",
      "effectiveGasPrice": "0x20e0c852f",
      "from": "0x0c4b161299fa4d45fcb3b70f9b2f472859705481",
      "to": "0xde60916277e01d8a20cb19ca029a8bc24ab5654f",
      "contractAddress": null
    }
  ],
  "libraries": [],
  "pending": [],
  "returns": {},
  "timestamp": 1719140545,
  "chain": 11155111,
  "commit": "05e5918"
}