{
  "transactions": [
    {
      "hash": "0xcfd7b0cd587bae0868015ac92bd5ac4cfbdb5ec2ea14fd0514897dcde1862f61",
      "transactionType": "CALL",
      "contractName": null,
      "contractAddress": "0x114b83e0f249355c02ea6795c1841cb97274dfb7",
      "function": "mintNft(string)",
      "arguments": [
        "\"ipfs://bafybeig37ioir76s7mg5oobetncojcm3c3hxasyd4rvid4jqhy4gkaheg4/?filename=0-PUG.json\""
      ],
      "transaction": {
        "from": "0x0c4b161299fa4d45fcb3b70f9b2f472859705481",
        "to": "0x114b83e0f249355c02ea6795c1841cb97274dfb7",
        "gas": "0x40fd9",
        "value": "0x0",
        "input": "0xda86f4a900000000000000000000000000000000000000000000000000000000000000200000000000000000000000000000000000000000000000000000000000000057697066733a2f2f62616679626569673337696f6972373673376d67356f6f6265746e636f6a636d3363336878617379643472766964346a71687934676b61686567342f3f66696c656e616d653d302d5055472e6a736f6e000000000000000000",
        "nonce": "0xa",
        "chainId": "0xaa36a7"
      },
      "additionalContracts": [],
      "isFixedGasLimit": false
    }
  ],
  "receipts": [
    {
      "status": "0x1",
      "cumulativeGasUsed": "0x7806c5",
      "logs": [
        {
          "address": "0x114b83e0f249355c02ea6795c1841cb97274dfb7",
          "topics": [
            "0xddf252ad1be2c89b69c2b068fc378daa952ba7f163c4a11628f55a4df523b3ef",
            "0x0000000000000000000000000000000000000000000000000000000000000000",
            "0x0000000000000000000000000c4b161299fa4d45fcb3b70f9b2f472859705481",
            "0x0000000000000000000000000000000000000000000000000000000000000000"
          ],
          "data": "0x",
          "blockHash": "0x1f82cf646cced098b10260bb935bb7457b028be49ff70bf844ca027b69bdd562",
          "blockNumber": "0x5d7f34",
          "transactionHash": "0xcfd7b0cd587bae0868015ac92bd5ac4cfbdb5ec2ea14fd0514897dcde1862f61",
          "transactionIndex": "0x44",
          "logIndex": "0x5b",
          "removed": false
        }
      ],
      "logsBloom": "0x00040000000000040000000000000000000000000000002000000000000000000000000000010000000000000000000000000000000000000000000000000000000000000000000000000008000000000000000000000000000000000000000000000000020000000000000000000800000000000000000000000010000000000000000000000000000000000000000000000000000000000000000000800000000000000000000000000040000000000000000000000000000000000000000000000002000000000000000000000000000000000000000000000000000020000000000000000000000000000000000000000000000000000000000000000000",
      "type": "0x2",
      "transactionHash": "0xcfd7b0cd587bae0868015ac92bd5ac4cfbdb5ec2ea14fd0514897dcde1862f61",
      "transactionIndex": "0x44",
      "blockHash": "0x1f82cf646cced098b10260bb935bb7457b028be49ff70bf844ca027b69bdd562",
      "blockNumber": "0x5d7f34",
      "gasUsed": "0x2c702",
      "effectiveGasPrice": "0x1bf2b8715",
      "from": "0x0c4b161299fa4d45fcb3b70f9b2f472859705481",
      "to": "0x114b83e0f249355c02ea6795c1841cb97274dfb7",
      "contractAddress": null
    }
  ],
  "libraries": [],
  "pending": [],
  "returns": {},
  "timestamp": 1718635635,
  "chain": 11155111,
  "commit": "05e5918"
}