{
  "transactions": [
    {
      "hash": "0xeb47ccad30a29c9d95dc29b3603c44dc3a349685086ed9d0e6bb20cd13c26b44",
      "transactionType": "CALL",
      "contractName": null,
      "contractAddress": "0xde60916277e01d8a20cb19ca029a8bc24ab5654f",
      "function": "mintNft(string)",
      "arguments": [
        "\"ipfs://QmXZn37m39A8utJR5AAjuJ6axp7mK5dsxbkemMmPySSJ4K/?filename=0-pug.json\""
      ],
      "transaction": {
        "from": "0x0c4b161299fa4d45fcb3b70f9b2f472859705481",
        "to": "0xde60916277e01d8a20cb19ca029a8bc24ab5654f",
        "gas": "0x3ad44",
        "value": "0x0",
        "input": "0xda86f4a90000000000000000000000000000000000000000000000000000000000000020000000000000000000000000000000000000000000000000000000000000004a697066733a2f2f516d585a6e33376d3339413875744a523541416a754a36617870376d4b35647378626b656d4d6d507953534a344b2f3f66696c656e616d653d302d7075672e6a736f6e00000000000000000000000000000000000000000000",
        "nonce": "0xe",
        "chainId": "0xaa36a7"
      },
      "additionalContracts": [],
      "isFixedGasLimit": false
    }
  ],
  "receipts": [
    {
      "status": "0x1",
      "cumulativeGasUsed": "0x82175d",
      "logs": [
        {
          "address": "0xde60916277e01d8a20cb19ca029a8bc24ab5654f",
          "topics": [
            "0xddf252ad1be2c89b69c2b068fc378daa952ba7f163c4a11628f55a4df523b3ef",
            "0x0000000000000000000000000000000000000000000000000000000000000000",
            "0x0000000000000000000000000c4b161299fa4d45fcb3b70f9b2f472859705481",
            "0x0000000000000000000000000000000000000000000000000000000000000001"
          ],
          "data": "0x",
          "blockHash": "0x7efa99921d404e086e5a1a99234da967649be52190a201b75152c3f3fa238dc7",
          "blockNumber": "0x5dacfe",
          "transactionHash": "0xeb47ccad30a29c9d95dc29b3603c44dc3a349685086ed9d0e6bb20cd13c26b44",
          "transactionIndex": "0x4c",
          "logIndex": "0x82",
          "removed": false
        }
      ],
      "logsBloom": "0x00040000000000000000000000000000000000000000000000000000000000000000000000010000000000000000000000000000000000000000200000040000000000000000000000000008000000040000000000040000000000000000000000000000020000000000000000000800000000000000000000000010000000000000000000000000000000000000000000000000000000000000000000800000000000000000000000000000000000000000000000000000000000000000000000000002000000000000000000000000000000000000000000000000000060000000000000800000000000000000000000000000000000000000000000000000",
      "type": "0x2",
      "transactionHash": "0xeb47ccad30a29c9d95dc29b3603c44dc3a349685086ed9d0e6bb20cd13c26b44",
      "transactionIndex": "0x4c",
      "blockHash": "0x7efa99921d404e086e5a1a99234da967649be52190a201b75152c3f3fa238dc7",
      "blockNumber": "0x5dacfe",
      "gasUsed": "0x2839a",
      "effectiveGasPrice": "0x1e800268",
      "from": "0x0c4b161299fa4d45fcb3b70f9b2f472859705481",
      "to": "0xde60916277e01d8a20cb19ca029a8bc24ab5654f",
      "contractAddress": null
    }
  ],
  "libraries": [],
  "pending": [],
  "returns": {},
  "timestamp": 1718783512,
  "chain": 11155111,
  "commit": "05e5918"
}